:100000000C9435000C945D000C945D000C945D0024
:100010000C945D000C945D000C945D000C945D00EC
:100020000C945D000C945D000C945D000C945D00DC
:100030000C945D000C945D000C945D000C945D00CC
:100040000C94A9030C945D000C94C1010C945D0008
:100050000C945D000C945D000C945D000C945D00AC
:100060000C945D000C945D00860211241FBECFEF3E
:10007000D8E0DEBFCDBF11E0A0E0B1E0E2EDF9E0F5
:1000800002C005900D92A633B107D9F711E0A6E39F
:10009000B1E001C01D92A83DB107E1F710E0CAE64A
:1000A000D0E004C02297FE010E94E304C836D107C5
:1000B000C9F70E94BA010C94E7040C9400000F9356
:1000C0001F930AEB11E0C8014EEF50E060E070E0D2
:1000D00020E030E00E949403C80141E050E060E07D
:1000E00070E020E030E00E9494031F910F9108958A
:1000F000CF93DF93EC01843191056CF48AEB91E0AE
:100100004EEF50E060E070E020E030E00E949403A9
:10011000C058DF4F32C0883291056CF48AEB91E011
:100120004EEF50E060E070E020E030E00E94940389
:10013000C455DF4F22C08C3391056CF48AEB91E0FB
:100140004EEF50E060E070E020E030E00E94940369
:10015000C459DF4F12C0803591051CF0C0E0D0E0DB
:10016000CDCF8AEB91E04EEF50E060E070E020E010
:1001700030E00E949403C856DF4FAE01662757FD5A
:100180006095762F8AEB91E020E030E00E949403A6
:10019000DF91CF9108950F931F930AEB11E0C801EF
:1001A0004EEF50E060E070E020E030E00E94940309
:1001B000C80144ED50E060E070E020E030E00E94D3
:1001C00094031F910F9108950F931F930AEB11E071
:1001D000C8014EEF50E060E070E020E030E00E94A7
:1001E0009403C80144E950E060E070E020E030E0B2
:1001F0000E9494031F910F9108950F931F930AEB90
:1002000011E0C8014EEF50E060E070E020E030E027
:100210000E949403C80140EC50E060E070E020E0F0
:1002200030E00E9494031F910F9108950F931F9344
:100230000AEB11E0C8014EEF50E060E070E020E012
:1002400030E00E949403C80140E850E060E070E0B4
:1002500020E030E00E9494031F910F910895EF92E7
:10026000FF920F931F930E945F000E9416010AEBFA
:1002700011E0C80160E071E00E94BD020E94FD0033
:10028000C80169E071E00E94BD020E94E400C8015B
:1002900062E171E00E94BD020E94CB00C8016DE1E5
:1002A00071E00E94BD0283E190E00E94780064E664
:1002B00070E080E090E00E94190487E2E82E81E07F
:1002C000F82EC801B7010E94BD0287E290E00E94AB
:1002D000780064E670E080E090E00E941904C801B4
:1002E000B7010E94BD028BE390E00E94780064E6B3
:1002F00070E080E090E00E941904C801B7010E94FC
:10030000BD028FE490E00E94780064E670E080E037
:1003100090E00E941904C801B7010E94BD028AE062
:1003200090E00E94780062E370E080E090E00E943C
:100330001904C80169E271E00E94BD0264EF71E036
:1003400080E090E00E9419041F910F91FF90EF90C0
:1003500008950F931F930AEB11E0C80140E855E29E
:1003600060E070E00E94FE01C8010E9467021F91D8
:100370000F9108950E9443040E94A9010E942F0139
:10038000FDCF1F920F920FB60F9211242F933F9320
:100390004F935F936F937F938F939F93AF93BF938D
:1003A000EF93FF934091C600E091B601F091B70141
:1003B000CF01019660E870E00E947D049C0180916D
:1003C000B8019091B9012817390739F0EA5CFE4F5E
:1003D00040833093B7012093B601FF91EF91BF9115
:1003E000AF919F918F917F916F915F914F913F91CD
:1003F0002F910F900FBE0F901F901895AF92BF9244
:10040000CF92DF92EF92FF920F931F93CF93DF93E0
:100410006C017A018B01DC011496AD90BC901597AC
:10042000CB01BA0122E030E040E050E00E94B2048B
:10043000205C3D4B404F5F4FCA01B901A8019701B5
:100440000E94B204C901DA010197A109B109292F5B
:100450003A2F4B2F552747FD5A950196A11DB11DE7
:10046000E5012883E601EE81FF8181508083EA85E2
:10047000FB85208141E050E0CA010E8402C0880F54
:10048000991F0A94E2F7282B2083EA85FB852081B7
:10049000CA010F8402C0880F991F0A94E2F7282B23
:1004A0002083EA85FB858081088802C0440F551FA0
:1004B0000A94E2F7842B8083DF91CF911F910F91F3
:1004C000FF90EF90DF90CF90BF90AF900895DC0148
:1004D0001296ED91FC911397EE57FF4F8081918119
:1004E000929382930895FC01A085B18521898C9116
:1004F00090E0022E02C0959587950A94E2F780FF5E
:10050000F6CF0484F585E02D6083089583E391E0C0
:100510009093BB018093BA0186E391E09093BD0173
:100520008093BC0185EC90E09093BF018093BE0165
:1005300084EC90E09093C1018093C00180EC90E046
:100540009093C3018093C20181EC90E09093C50128
:100550008093C40186EC90E09093C7018093C6011C
:1005600084E08093C80183E08093C90187E0809391
:10057000CA0185E08093CB0108950F931F93CF9319
:10058000DF938C01EB0109C02196D801ED91FC911C
:100590000190F081E02DC801099568816623A1F7DB
:1005A000DF91CF911F910F9108952F923F924F921B
:1005B0005F926F927F928F929F92AF92BF92CF92F3
:1005C000DF92EF92FF920F931F93DF93CF93CDB7FC
:1005D000DEB7A0970FB6F894DEBF0FBECDBF1C01EB
:1005E0006A017B01411551056105710549F4DC0182
:1005F000ED91FC910190F081E02D60E3099554C0EC
:10060000882499245401422E55246624772401E03D
:1006100010E00C0F1D1F080D191DC701B601A30125
:1006200092010E949004F80160830894811C911C3F
:10063000A11CB11CC701B601A30192010E94900444
:10064000C901DA016C017D01C114D104E104F10496
:10065000F1F681E0E82EF12CEC0EFD1EE80CF91C01
:100660003E010894611C711CD501C4010197A109C8
:10067000B1096C01C818D90814C0F601EE0DFF1DB0
:1006800060816A3010F4605D01C0695CD101ED9158
:10069000FC910190F081E02DC10109950894E108D9
:1006A000F1086E147F0449F7A0960FB6F894DEBFE8
:1006B0000FBECDBFCF91DF911F910F91FF90EF90B3
:1006C000DF90CF90BF90AF909F908F907F906F9072
:1006D0005F904F903F902F900895EF92FF920F936D
:1006E0001F93CF93DF93EC017A018B0177FF0FC04B
:1006F000E881F9810190F081E02D6DE20995109576
:100700000095F094E094E11CF11C011D111DCE0137
:10071000B801A7012AE00E94D502DF91CF911F9175
:100720000F91FF90EF900895DC012115310541F400
:10073000ED91FC910190F081E02D642F09950895D1
:100740002A30310519F40E946D0308950E94D502E4
:1007500008951F920F920FB60F9211242F938F932B
:100760009F93AF93BF938091CC019091CD01A091C5
:10077000CE01B091CF010196A11DB11D8093CC0196
:100780009093CD01A093CE01B093CF018091D00181
:100790009091D101A091D201B091D3018050904CA1
:1007A000AF4FBF4F8093D0019093D101A093D2015E
:1007B000B093D30127C08091D0019091D101A09135
:1007C000D201B091D30180589E43A040B0408093A5
:1007D000D0019093D101A093D201B093D301809125
:1007E000D4019091D501A091D601B091D701019685
:1007F000A11DB11D8093D4019093D501A093D60182
:10080000B093D7018091D0019091D101A091D201F4
:10081000B091D30181589E43A040B04060F6BF9193
:10082000AF919F918F912F910F900FBE0F901F90BE
:100830001895EF92FF920F931F937B018C018FB756
:10084000F8944091D4015091D5016091D6017091F6
:10085000D7018FBF2FB7F8948091D4019091D50123
:10086000A091D601B091D7012FBF841B950BA60B89
:10087000B70BE816F9060A071B0760F71F910F91DF
:10088000FF90EF900895789484B5826084BD84B51C
:10089000816084BD85B5826085BD85B5816085BD7B
:1008A000EEE6F0E0808181608083E1E8F0E0808125
:1008B00082608083808181608083E0E8F0E08081D5
:1008C00081608083E1EBF0E0808184608083E0EBF5
:1008D000F0E0808181608083EAE7F0E080818460DD
:1008E0008083808182608083808181608083808139
:1008F000806880831092C100089597FB092E072617
:100900000AD077FD04D049D006D000201AF47095A3
:1009100061957F4F0895F6F7909581959F4F0895C3
:10092000A1E21A2EAA1BBB1BFD010DC0AA1FBB1FF3
:10093000EE1FFF1FA217B307E407F50720F0A21B65
:10094000B30BE40BF50B661F771F881F991F1A94D2
:1009500069F760957095809590959B01AC01BD01FC
:10096000CF01089597FB092E05260ED057FD04D020
:10097000D7DF0AD0001C38F450954095309521956A
:100980003F4F4F4F5F4F0895F6F7909580957095C4
:1009900061957F4F8F4F9F4F0895AA1BBB1B51E15D
:1009A00007C0AA1FBB1FA617B70710F0A61BB70BDF
:1009B000881F991F5A95A9F780959095BC01CD0184
:1009C0000895EE0FFF1F0590F491E02D0994F8941F
:0209D000FFCF57
:1009D2004C696E65204F6E65004C696E65205477D8
:1009E2006F004C696E65205468726565004C696ED3
:1009F2006520466F7572002A004D696B65650000BF
:060A020000000073020079
:00000001FF
